:020000040800F2
:200000006806002051040008590400085B0400085D0400085F0400086104000800000000E8
:200020000000000000000000000000006304000865040008000000006704000869040008F8
:200040006B0400086B0400086B0400086B0400086B0400086B0400086B0400086B040008E8
:200060006B0400086B0400086B0400086B0400086B0400086B0400086B0400086B040008C8
:200080006B0400086B0400086B040008000000000000000000000000000000006B04000884
:2000A0006B0400086B0400086B0400086B0400086B0400086B040008000000006B040008FF
:2000C0006B04000800000000000000006B040008000000006B0400086B0400080000000044
:2000E0006B0400086B0400086B04000800000000000000000000000000000000000000009B
:20010000000000000000000000000000000000000000000000000000DF0300086B0400087E
:2001200000F002F800F03CF80AA090E8000C82448344AAF10107DA4501D100F031F8AFF2A8
:20014000090EBAE80F0013F0010F18BFFB1A43F001031847C4030000E4030000103A24BF67
:2001600078C878C1FAD8520724BF30C830C144BF04680C60704700000023002400250026EB
:20018000103A28BF78C1FBD8520728BF30C148BF0B6070471FB500F0B8F91FBD10B510BDE5
:2001A00000F079F91146FFF7F5FF00F0A7F800F097F903B4FFF7F2FF03BC00F09FF90000A8
:2001C0009348806940F00800914988619148006820F440008F4908600846006840F4801011
:2001E00008600846006820F0406008600846006840F0807008600846006820F040400860DD
:200200000846006840F08050086070478048C06940F010007E49C8614FF6FF707E490885E0
:200220004FF0F40088850846808940F0010088810846808940F4807088810846808840F0E3
:20024000200088800846008840F00100088070476F48C06940F000506D49C8616F480068D2
:2002600040F001006D49086070476948806940F40070674988616A48006840F001006849A5
:2002800008600846006840F4602008600846006840F4801008606348006840F0E060614915
:2002A00008604FF008006049086070475848406940F00100564948615C48006B40F48060E2
:2002C0005A4908630846006B40F4807008630846006B40F0200008630846006B40F010005B
:2002E00008634FF005004863514888635148C8630846006B40F00100086370470EB54EA699
:20030000D6E90010B668CDE9010600914FF00004FFF7CCFFFFF7A9FFFFF79AFFFFF776FF06
:2003200062B64FF0360000F01F064FF0010101FA06F14FEA50164FF0E02707EB8606C6F8C7
:20034000001100BF00BF3648006840F480003449086000BF32480838006810F0020FF9D0D4
:200360003848006833490880084600884FF4C87190FBF1F082B21DF802504FF001021DE0F9
:20038000154206D03048006840F020002E49086005E02D48006840F400102B4908602A48CD
:2003A000006840F04000284908600846006840F4800008604FEA42404FEA1042FF2ADFDB91
:2003C00044F6206301E0A3F10103002BFBD1A4F57060FD38B7D004F1010084B2B3E70E48AF
:2003E000008A20F001000C4908821848006810F0800F06D01448006840F40000124908609B
:2004000005E01148006840F080000F490860704700100240000C014000100040007400406C
:2004200008240140102401403424014000000240087400400000002081ED43492D1911CD05
:20044000010900004C240140100C01400C0C01400948804709480047FEE7FEE7FEE7FEE7E7
:20046000FEE7FEE7FEE7FEE7FEE7FEE704480549054A064B70470000C10100082101000839
:2004800068000020680600206802002068020020704770477047754600F028F8AE46050049
:2004A0006946534620F00700854618B020B5FFF7DDFFBDE820404FF000064FF000074FF0D4
:2004C00000084FF0000B21F00701AC46ACE8C009ACE8C009ACE8C009ACE8C0098D467047C1
:2004E0000446AFF300802046FFF763FE004870470400002000487047080000200149182007
:20050000ABBEFEE726000200704710B5FFF7F2FF4FF00001016010BD38050008000000202F
:20052000040000005C0100083C05000804000020640600007801000800000000FFFFFFFFFE
:20054000FFFFFFFFFFFFFFFFFFFFFFFFFFFFFFFFFFFFFFFFFFFFFFFFFFFFFFFFFFFFFFFFBB
:20056000FFFFFFFFFFFFFFFFFFFFFFFFFFFFFFFFFFFFFFFFFFFFFFFFFFFFFFFFFFFFFFFF9B
:20058000FFFFFFFFFFFFFFFFFFFFFFFFFFFFFFFFFFFFFFFFFFFFFFFFFFFFFFFFFFFFFFFF7B
:2005A000FFFFFFFFFFFFFFFFFFFFFFFFFFFFFFFFFFFFFFFFFFFFFFFFFFFFFFFFFFFFFFFF5B
:00000001FF
